:1000000019C033C032C031C030C02FC02EC02DC087
:100010002CC02BC02AC029C028C027C026C025C09C
:1000200024C023C022C021C020C01FC01EC01DC0CC
:100030001CC01BC011241FBECFEFCDBFDFE3DEBF4E
:100040001EE3A0E0BEE3E4E7F3E002C005900D92FA
:10005000A430B107D9F72EE3A4E0BEE301C01D929E
:10006000AE30B207E1F7F5D083C1CACF45D10895CC
:1000700080E18093063E10920A3E10920B3E87EF7D
:1000800094E08093083E9093093E80914101811154
:10009000FCCF809171008093073E08951092480133
:1000A00010924901809141018111FCCF80E090E0E4
:1000B0000196209148013091490124363105C0F361
:1000C000089580910C3E8F5F80930C3E843089F5BB
:1000D0002091083E3091093E220F331F3695279517
:1000E00036952795ABE7B4E131D196958795209168
:1000F000013E3091023E2817390748F481E0809391
:10010000003E60910D3E81E790E02CD10BC0109233
:10011000003E809171006091073E861719F081E7DB
:1001200090E020D181E090E080930A3E90930B3ED6
:100130000895609171008091053E680F81E790E01D
:1001400011D10895CF9310920C3E8FEF8093003E13
:1001500081E090E080930A3E90930B3E90E021C0B6
:100160009DDFFC012091083E3091093EAC01421B0D
:10017000530BCA01992324F488279927841B950BD4
:10018000AC01220F331F3695279536952795ABE79F
:10019000B4E1DCD09C01369527959C2F421753077C
:1001A00020F0C1E0C90F9431D8F2C43118F0809129
:1001B000003E4BC08091083E9091093EE817F90738
:1001C00020F481E08093053E11C08E179F0720F434
:1001D0008FEF8093053E0AC01092003E1092053EBC
:1001E00081E090E080930A3E90930B3E4093013E65
:1001F0005093023E8091710080930D3E62DF1DC0DE
:100200004DDF2091083E3091093E821B930B9C01EB
:1002100022F422273327281B390B8091013E90912D
:10022000023E2817390740F42093013E3093023EE6
:100230008091710080930D3E44DF80910A3E909141
:100240000B3E892BE9F28091003ECF9108957ADF31
:1002500008950CDF0DDF83ED90E30197F1F700C007
:100260000000F5DF8093043E00009FE32BE48CE464
:10027000915020408040E1F700C00000F2CF80E0C4
:10028000089541E068ED8CE790E03ED043E068EDF2
:1002900081E690E039D080E0089580E0089580E024
:1002A00008C0E82FF0E0E05FFB4F908198609083FA
:1002B0008F5F8830B0F380E008C0E82FF0E0E05DA9
:1002C000FB4F9081986090838F5F8830B0F380E01F
:1002D00008C0E82FF0E0E05BFB4F908198609083CE
:1002E0008F5F8830B0F3089585B18D7F85B984B173
:1002F000826084B90DD00895D2DFC3DF19D0F4DF56
:10030000CCDF22D0BCDF0895FC0164BF4083089598
:10031000E0E0FAE084EF91E082A793A783E2818393
:1003200088EE93E086A397A381E0808380E0089520
:10033000809141018111FCCFE0E4F1E081E0808314
:1003400082E0878380E0089580E00895A29FB00155
:10035000B39FC001A39F01D0B29F700D811D1124D6
:10036000911D0895DC0128ED209334006C930895CD
:04037000F894FFCF2F
:04037400FFFFFF0088
:00000001FF
