:1000000019C033C032C031C030C02FC02EC02DC087
:100010002CC02BC02AC029C028C027C026C025C09C
:1000200024C023C022C021C020C01FC01EC01DC0CC
:100030001CC01BC011241FBECFEFCDBFDFE3DEBF4E
:100040001EE3A0E0BEE3E6EAF2E002C005900D92F6
:10005000A230B107D9F72EE3A2E0BEE301C01D92A2
:10006000AC30B207E1F7BDD01CC1CACFFBD00895B8
:1000700087EF94E08093053E9093063E60EE81E723
:1000800090E009D1000008951092480110924901B2
:10009000809141018111FCCF80E090E00196209198
:1000A00048013091490124363105C0F3089520916B
:1000B000053E3091063E2817390768F48FEF80938C
:1000C000023E609171008091033E681B81E790E0E1
:1000D000E2D0000016C08217930768F481E0809395
:1000E000023E609171008091033E680F81E790E0CD
:1000F000D2D0000006C081E090E08093073E90934C
:10010000083E8091033E86958093033E089580913A
:10011000093E8F5F8093093E843061F460910B3E0D
:1001200081E790E0B8D081E090E08093073E909323
:10013000083E0895609171008091023E680F81E74A
:1001400090E0A9D000000895CF93C1E036C09CDFB5
:100150002091033E222311F0AADF2FC0C11118C045
:100160002091053E3091063E821B930B9C0122F4A8
:1001700022273327281B390B8091003E281730F4A3
:100180002093003E8091710080930B3EC0DF15C02C
:100190001092093E2091053E3091063E821B930B42
:1001A0009C0122F422273327281B390B2093003E81
:1001B0008091710080930B3EC0E08091073E90914A
:1001C000083E892B21F2CF91089552DF80E1809380
:1001D000033E1092073E1092083EB6DF80917100F8
:1001E000089544DF00000000000000000000EDDF83
:1001F0000000000000000000FFCF80E0089541E013
:1002000068ED8CE790E035D043E068ED81E690E062
:1002100030D080E0089580E0089580E008C0E82FA5
:10022000F0E0E05FFB4F9081986090838F5F8830B3
:10023000B0F380E008C0E82FF0E0E05DFB4F908174
:10024000986090838F5F8830B0F380E008C0E82F1B
:10025000F0E0E05BFB4F9081986090838F5F883087
:10026000B0F30895DADFCBDF08D0D5DF12D0C5DFD9
:100270000895FC0164BF408308958091410181117C
:10028000FCCFE0E4F1E081E0808382E0878380E0DE
:10029000089580E00895DC0128ED209334006C93EC
:0602A0000895F894FFCF61
:0202A600FF0057
:00000001FF
