:1000000019C033C032C031C030C02FC02EC02DC087
:100010002CC02BC02AC029C028C027C026C025C09C
:1000200024C023C022C021C020C01FC01EC01DC0CC
:100030001CC01BC011241FBECFEFCDBFDFE3DEBF4E
:100040001EE3A0E0BEE3E0EEF2E002C005900D92F8
:10005000A230B107D9F72EE3A2E0BEE301C01D92A2
:10006000AA30B207E1F7C3D039C1CACF07D108958A
:100070001092480110924901809141018111FCCFF9
:1000800080E090E0019620914801309149012436AA
:100090003105C0F308952091043E3091053E2817A4
:1000A000390760F48FEF8093023E60917100809178
:1000B000033E681B81E790E00BD115C082179307C0
:1000C00060F481E08093023E609171008091033E74
:1000D000680F81E790E0FCD006C081E090E080935B
:1000E000063E9093073E8091033E86958093033EA3
:1000F00008958091083E8F5F8093083E843061F4BC
:100100006091093E81E790E0E3D081E090E0809348
:10011000063E9093073E0895609171008091023EE3
:10012000680F81E790E0D4D00895CF93C1E03DC03F
:100130009FDF2091033E222311F0ADDF36C0C111B5
:100140001DC02091043E3091053E821B930B9C0103
:1001500022F422273327281B390B8091003E9091EF
:10016000013E2817390740F42093003E3093013EAA
:10017000809171008093093EBCDF17C01092083E49
:100180002091043E3091053E821B930B9C0122F48A
:1001900022273327281B390B2093003E3093013E42
:1001A000809171008093093EC0E08091063E90915D
:1001B000073E892B09F4BCCFCF91089580E180934D
:1001C000033E1092063E1092073E87EF94E0809324
:1001D000043E9093053E809141018111FCCF60EE79
:1001E00081E790E075D0A1DF8091710008953EDF36
:1001F00081EE94E00197F1F700C00000DFDF00001E
:10020000FFCF80E0089541E068ED8CE790E03ED0BC
:1002100043E068ED81E690E039D080E0089580E029
:10022000089580E008C0E82FF0E0E05FFB4F908188
:10023000986090838F5F8830B0F380E008C0E82F2B
:10024000F0E0E05DFB4F9081986090838F5F883095
:10025000B0F380E008C0E82FF0E0E05BFB4F908156
:10026000986090838F5F8830B0F3089585B18D7F5B
:1002700085B984B1826084B90DD00895D2DFC3DF1F
:1002800019D0F4DFCCDF22D0BCDF0895FC0164BFBD
:1002900040830895E0E0FAE084EF91E082A793A71D
:1002A00083E2818388EE93E086A397A381E0808335
:1002B00080E00895809141018111FCCFE0E4F1E0FC
:1002C00081E0808382E0878380E0089580E0089564
:1002D000DC0128ED209334006C930895F894FFCF4F
:0202E000FFFF1E
:00000001FF
