S00D000063616C69622E737265631C
S113000019C033C032C031C030C02FC02EC02DC083
S11300102CC02BC02AC029C028C027C026C025C098
S113002024C023C022C021C020C01FC01EC01DC0C8
S11300301CC01BC011241FBECFEFCDBFDFE3DEBF4A
S11300401EE3A0E0BEE3ECEFF2E002C005900D92E7
S1130050A230B107D9F72EE3A2E0BEE301C01D929E
S1130060AA30B207E1F7C3D047C1CACF09D1089576
S11300701092480110924901809141018111FCCFF5
S113008080E090E0019620914801309149012436A6
S11300903105C0F308958091083E8F5F8093083E38
S11300A0843061F46091093E81E790E01FD181E0E2
S11300B090E08093063E9093073E0895609171000E
S11300C08091023E680F81E790E010D10895CF93AC
S11300D01092083E81E090E08093063E9093073EA4
S11300E090E021C0C5DFFC012091043E3091053E23
S11300F0AC01421B530BCA01992324F48827992786
S1130100841B950BAC01220F331F3695279536952A
S11301102795ABE7B4E1DED09C01369527959C2F5B
S11301204217530720F0C1E0C90F9A30D8F2CA3001
S113013008F047C08091043E9091053EE817F90706
S113014020F481E08093023E0DC08E179F0720F4B7
S11301508FEF8093023E06C081E090E08093063EDC
S11301609093073E4093003E5093013E809171006E
S11301708093093E90DF1DC07BDF2091043E3091C7
S1130180053E821B930B9C0122F422273327281B54
S1130190390B8091003E9091013E2817390740F4B5
S11301A02093003E3093013E809171008093093E7C
S11301B072DF8091063E9091073E892BE9F280E040
S11301C001C08FEFCF91089580E18093033E109298
S11301D0063E1092073E87EF94E08093043E90938E
S11301E0053E809141018111FCCF71DF08953EDF0E
S11301F02FE786E998E9215080409040E1F700C05C
S11302000000E2DFF5CF80E0089541E068ED8CE77F
S113021090E03ED043E068ED81E690E039D080E0A4
S1130220089580E0089580E008C0E82FF0E0E05FE2
S1130230FB4F9081986090838F5F8830B0F380E0AB
S113024008C0E82FF0E0E05DFB4F90819860908358
S11302508F5F8830B0F380E008C0E82FF0E0E05B07
S1130260FB4F9081986090838F5F8830B0F308953E
S113027085B18D7F85B984B1826084B90DD008952C
S1130280D2DFC3DF19D0F4DFCCDF22D0BCDF089586
S1130290FC0164BF40830895E0E0FAE084EF91E05C
S11302A082A793A783E2818388EE93E086A397A332
S11302B081E0808380E00895809141018111FCCF29
S11302C0E0E4F1E081E0808382E0878380E00895C8
S11302D080E00895A29FB001B39FC001A39F01D005
S11302E0B29F700D811D1124911D0895DC0128ED2C
S10F02F0209334006C930895F894FFCF21
S10502FCFFFFFE
S9030000FC
